:020000040800F2
:10000000D00600209D0100089D250008AD140008C1
:1000100075240008A90E0008B9420008000000007D
:10002000000000000000000000000000B90100080E
:10003000410F000800000000BD010008BD380008A5
:10004000C1010008C1010008C1010008C101000888
:10005000C1010008C10100088D0F0008E90F000868
:10006000C1010008C1010008C1010008C101000868
:10007000C1010008C1010008C1010008C101000858
:10008000C1010008C1010008C1010008C101000848
:10009000C1010008C1010008C101000845100008A5
:1000A000C1010008E9390008C1010008C1010008C8
:1000B000153A0008C1010008C1010008C10100088B
:1000C000C1010008C1010008C1010008C101000808
:1000D000C1010008C1010008C1010008593F000822
:1000E000C1010008C1010008C1010008C1010008E8
:1000F000C1010008C1010008C1010008C1010008D8
:10010000C1010008C10100083D3A0008C101000812
:10011000C1010008C1010008C1010008C1010008B7
:10012000C1010008C1010008C1010008C1010008A7
:10013000C1010008C1010008C1010008C101000897
:10014000C1010008C1010008C1010008C101000887
:10015000C1010008C1010008C1010008CD4000082C
:10016000C1010008C1010008C1010008C101000867
:10017000C1010008C1010008C1010008C101000857
:10018000C1010008C1010008DFF80CD000F024FC18
:1001900000480047D5630008D006002009480168E0
:1001A00041F4700101600848804708480047FEE7B5
:1001B000FEE7FEE7FEE7FEE7FEE7FEE7FEE7FEE717
:1001C000FEE7000088ED00E0D5380008890100084E
:1001D000421C10F8011B0029FBD1801A70472DE941
:1001E000FE4F804681EA0300C00F0C46009021F0CC
:1001F000004123F00045B8EB0200A94105D240467A
:10020000214690461C460B46024623F00040104310
:1002100004D14046214603B0BDE8F08F270DC7F357
:100220000A00C3F30A510290401A0190402866DA8E
:10023000C3F3130040F4801B0098924620B10023C2
:10024000D2EB030A63EB0B0B01985946C0F1400255
:10025000504600F018FA06460D4650465946019A97
:1002600000F030FA10EB08006141002487EA1152D7
:1002700084EAE7731A433BD0009A3AB3019A012A01
:100280004FEA075210DC001B61EB02014FF0004205
:1002900002EA0752CDE90042001C41F580113246C6
:1002A0002B4600F0B2FAB6E7001B61EB0201001C1E
:1002B00041F5801300185B412018A2F5001747EBA9
:1002C000030140EAD570B6196D4111E06D084FEA9F
:1002D000360645EAC0754FEA0752001B61EB020182
:1002E000001C41F5801149084FEA300000195141C6
:1002F00032462B4603B0BDE8F04F00F079BA0098C3
:10030000012240000023D0EB020263EBE07300986F
:1003100021464FEAE074B8EB000061EB0401E9E725
:1003200083F000435BE781F0004158E72DE9FE4F81
:1003300081EA030404F0004421F0004100944FF0EE
:10034000000B23F0004350EA010402D052EA0304F8
:1003500004D10020014603B0BDE8F08FC3F30A5476
:10036000C1F30A552C44A4F2F3340194A0FB0254C7
:10037000C1F3130141F48011C3F3130343F4801359
:1003800001FB024400FB034E840A970A44EA8154AD
:1003900047EA8357A4FB076802958D0A05FB07858A
:1003A0004FEA932C04FB0C542705029D4FEA065894
:1003B00047EA1637B5EB08056EEB070C870E920E71
:1003C00047EA811742EA8312A7FB0201B6EB0B0151
:1003D00064EB00042B0D43EA0C335E1844EB1C5015
:1003E000DA465146E7FB0201C5F313044FEA0B332B
:1003F00043EA14534FEA0432019C43EA0603A4F192
:100400000C040294009CCDE900B400F0FEF9A2E7D0
:100410002DE9F04D81EA030404F0004B21F0004582
:1004200014464FF0000A23F0004150EA050220D0A4
:1004300054EA01021DD0C5F30A570246C5F313035F
:10044000C1F31300C1F30A5640F4801543F480133E
:10045000A7EB0608101BD64608F2FD3873EB050023
:1004600002D308F1010801E092185B41B8F1000FD6
:1004700003DA00200146BDE8F08D00204FF4801122
:10048000064684460EE0171B73EB050705D3121BC7
:1004900063EB050306434CEA010C49084FEA3000C0
:1004A00092185B4150EA0107EDD152EA030012D0E5
:1004B00082EA040083EA0501084303D100224FF0D9
:1004C000004308E0101BAB4102D20122002302E0EE
:1004D0006FF0010253101AEB06004CEB085110EBC1
:1004E0000A0041EB0B01BDE8F04D00F081B90EB5FB
:1004F000C10F80EAE0700844CA07002140F233438C
:100500008DE80E000A460B4600F07FF903B000BDEF
:100510000EB540F2334102910021CDE900110A46A7
:100520000B4600F072F903B000BD70B5C1F30A527A
:1005300001F000450024C1F3130140F2FF3341F400
:1005400080119A4201DA002070BD40F233439A4292
:10055000A2F2334203DC524200F0A4F800E09040E3
:100560002C43F1D0404270BDC1F30A5210B5C1F323
:10057000130140F2FF3341F480119A4201DA002066
:1005800010BD40F233439A42A2F2334203DC52429E
:1005900000F088F810BD904010BD00F0004230F02F
:1005A00000400AD0C10D01F56071C0F3160042EAA7
:1005B0000151C208400711437047002001467047AF
:1005C00001F0004330B421F0004150EA010206D0AE
:1005D0000A0DA2F56072C1F31301002A02DC30BCDF
:1005E00000207047440F44EAC104C100E01830BC49
:1005F00000EBC25000F0C6B830B50B4601460020F3
:100600002022012409E021FA02F59D4205D303FAD4
:1006100002F5491B04FA02F52844151EA2F1010255
:10062000F1DC30BD2DE9F05F0546002092469B4687
:1006300088460646814640241BE0284641464746F8
:10064000224600F02FF853465A46C01A914110D363
:1006500011461846224600F016F82D1A67EB0108DD
:100660004F4622460120002100F00DF817EB00094B
:100670004E41201EA4F10104DFDC484631462A46E3
:100680004346BDE8F09F202A04DB203A00FA02F13D
:10069000002070479140C2F1200320FA03F3194370
:1006A00090407047202A04DB203A21FA02F0002112
:1006B000704721FA02F3D040C2F120029140084372
:1006C00019467047202A06DBCB17203A41FA02F080
:1006D00043EAE07306E041FA02F3D040C2F120029F
:1006E00091400843194670470FB4002300B589B004
:1006F0000CA900910B996FF00042CB601E4B069342
:100700001E4B07930423CDE901321D4A089202468D
:100710006B46002000F0F8F909B05DF814FB70B5E5
:1007200086B006464FF0FF300091CDE90101002070
:1007300015460C4604903246694604A8FFF7D4FFDC
:1007400003460498211825B108B10A4600E0224664
:100750002A6000280DD0002B02DD0098884208D0C6
:10076000081B0094CDE901043246694604A8FFF74E
:10077000BBFF06B070BD0000450D0008630D00080A
:10078000FD0900080029A8BF7047401C490008BFA8
:1007900020F00100704710B4B0FA80FC00FA0CF0B1
:1007A00050EA010404BF10BC704749B1CCF12004E9
:1007B00021FA04F411FA0CF118BF01212143084376
:1007C000A3EB0C01CB1D0106000A002BBEBF0020CD
:1007D00010BC704700EBC35010440029A4BF10BCEC
:1007E0007047401C490008BF20F0010010BC704752
:1007F00010B5002B08DA401C41F1000192185B4152
:100800001A4301D120F0010010BD2DE9F04D9246B0
:100810009B4611B1B1FA81F202E0B0FA80F22032C7
:100820009046FFF730FF04460F4640EA0A0041EACF
:100830000B0153465A46084303D120463946BDE8CA
:10084000F08D114653EA010015D0C8F14002504620
:10085000FFF728FF05460E46504659464246FFF729
:1008600012FF084301D0012000E00020054346EAC2
:10087000E0762C4337430A984FEA4453A0EB080034
:100880004FEAD4240A304FF0000244EA47544FEABA
:10089000D72502D500200146D1E70105101969418D
:1008A000DDE9084500196941BDE8F04DA0E770B5E4
:1008B00021F0004303430CD0C1F30A550024D5EBCB
:1008C000040564EB0403D617AD1AB34102DB002024
:1008D000014670BD201841EB025170BD2DE9F04D6D
:1008E00000231A461B1A8A4103DB00200146BDE89B
:1008F000F08DC1F30A52C1F3130141F480154FF09A
:10090000000BD10702D100186D41521E002704468A
:1009100040F2FF11384601EB620A3E46804602462D
:1009200000204FF48011FFF7BDFEC2197141BB18C2
:1009300046EB0100B4EB030C75EB000C04D3E41A96
:1009400065EB000517460E46241908F101006D41BC
:1009500080463428E3DDF91946EB0600091BA8415F
:1009600003D24FF0FF32134601E0002213461BEB87
:10097000070046EB0A51BDE8F04DFFF739BFC1F360
:100980000A52C1F3130140F2FF3341F480119A423D
:1009900002DA00200146704740F233439A42A2F245
:1009A000334202DC5242FFF77DBEFFF76CBE00000F
:1009B00030B5002904DB4FF00044404264EB0101F4
:1009C000002B04DB4FF00044524264EB03039942D6
:1009D00008BF904230BD0000064C074D06E0E068BD
:1009E00040F0010394E8070098471034AC42F6D376
:1009F000FFF7CEFB0067000820670008C0B24FF485
:100A0000F05100F0BFB900002DE9FF4F087881B028
:100A10009946FF2805D0491C2D2804D00024002326
:100A200008E000230BE00124F9E703EB830300EB6C
:100A30004303491C0878FF28F7D104B15B4200202A
:100A40000090147801462D2C01D02B2C04D1521C7F
:100A50002D2C12D00024009400251678FF2E0ED0E5
:100A60000A24A0FB04C801FB0481002700FB071136
:100A7000521C16EB0C006941EFE70124EBE79944A7
:100A800050EA010206D101980021C0E9001105B029
:100A9000BDE8F08F0024A84D2646DFF8A08200F0C4
:100AA00085F982468B46B9F1000002DAC9F10007E8
:100AB00014E0074612E0F80707D022462B463046DE
:100AC0004146FFF733FC0646884622462B46104631
:100AD0001946FFF72BFC04460D467F10002FEAD184
:100AE000B9F1000F324643465046594602DAFFF745
:100AF0008FFC01E0FFF71AFC009A0AB181F0004177
:100B0000019AC2E90001C2E72DE9FF4F1F468DB0EF
:100B1000D7E901464FF0FF382E2045464FF0000937
:100B20000B90B9696D1C0E988847396A82468847D0
:100B30000028F6D11AF101000AD024F4D064002E66
:100B400012DDBAF12B0F08D0BAF12D0F0CD102E053
:100B5000404611B09CE744F48064B9696D1C0E985E
:100B600088478246A6F101066946600501D52D2019
:100B700000E02B208DF8000001F1010B0DF12008A1
:100B800009E0B9696D1C0E98884782460F98761E59
:100B900044F400740560002E02DDBAF1300FF0D08D
:100BA0000B998A453ED144F0800406E00F99681CF9
:100BB000A9F1010944F400740860761EB9696D1C3E
:100BC0000E98884782463028F0D02BE00B998A4552
:100BD00005D1200603D444F08004761E18E0504668
:100BE00004F0F4FD08B3761E0DF1130144F4007413
:100BF0008B4508D2AAF130000BF8010B200607D56F
:100C0000A9F1010003E0200602D409F101008146A8
:100C1000A00502D50F99681C0860B9696D1C0E9873
:100C200088478246002ED1DC54E0002E52DDBAF116
:100C3000650F02D0BAF1450F4CD1A0054AD5761EFA
:100C4000B96924F440746D1C0E9888478246002EC2
:100C50000DDD2B2804D0BAF12D0F08D144F4807497
:100C6000B9696D1C0E9888478246A6F10106E00519
:100C700001D52D2100E02B2108F8011BCDF82C8097
:100C800021E0761E0DF1290144F4007488450CD250
:100C9000AAF1300010F0FF0088F8000002D10B9993
:100CA000884509D908F1010806E0E00501D5244886
:100CB00001E042F20F708146B9696D1C0E988847B9
:100CC00082460F980560002E04DD504604F07EFD3C
:100CD0000028D6D1F9690E988847FF208BF80000CC
:100CE00088F800000020069007904B466A4608A945
:100CF00006A8FFF789FEA00502D46FF0010028E7DF
:100D000014F0240F0AD0E00714D1DDE90612386888
:100D1000031D3B600068C0E900120BE0DDE906013D
:100D2000FFF74EFC0146E00704D13868021D3A6027
:100D30000068016028460CE7000024400000F03FF6
:100D4000F1D8FFFF426842B1016811F8013B23B1BD
:100D5000521EC0E90012184670470121C160881E6A
:100D6000704742685AB1C368016843B983688B42CF
:100D700005D0491E521CC0E90012002070474FF0F8
:100D8000FF3070477F2801D9002208E0064A02EBB5
:100D90005002C007127800D1120902F00F020120A0
:100DA0009040084070470000C06600080EB540F251
:100DB000334202920022CDE900221346FFF725FDBF
:100DC00003B000BD70B501EB020410F8015B15F033
:100DD000070301D110F8013B2A1106D110F8012BAD
:100DE00003E010F8016B01F8016B5B1EF9D12B07D2
:100DF00005D40023521E0FD401F8013BFAE710F886
:100E0000013B02F10202A1EB030303E013F8015BD3
:100E100001F8015B521EF9D5A142D6D3002070BD66
:100E200070B5204C2DED048BD4ED040A94ED030A2B
:100E3000606830EE808A94ED050A054638EE000AB7
:100E4000C8EE008AFFF7A9FB94ED081B53EC112BA9
:100E5000FFF769FA41EC190B18EE900AFFF79DFBBA
:100E600053EC192BFFF762FA41EC190B2846FFF7F8
:100E700094FB53EC192BFFF7B2F9FFF7A1FBB7EE88
:100E8000000A606030EE680A20EE080A84ED040A69
:100E9000FFF783FB41EC100B84ED080BBDEC048BDA
:100EA00070BD000068000020FEE7000070B520481B
:100EB00001260025C3688268416800681D4CB3F5AF
:100EC000616F0DD9B2F5166F3EBFB1F5166F40F6E2
:100ED0005A2C604504D22670667005F075FA10E051
:100EE00040F6980C634538BFB2F5166F0BD240F64A
:100EF000EA32824238BFB1F5166F04D2257005F090
:100F00005DFA00F0D5FA207801280FD10A48DFED0C
:100F10000B0A90ED000A20EE200ABDEEC00A10EE8A
:100F2000100A0A28A2BF6570A67070BDA57070BDBA
:100F3000B402002028010020180100200000C8424F
:100F40007047000000B585B0042002F0ABFC684695
:100F500002F016F90B490198B0FBF1F0B0F1807F77
:100F600024BF05B000BD20F07F40411E4FF0E020BF
:100F70004161054AF0211170002181610721016161
:100F800005B000BD40420F0023ED00E010B5012088
:100F900000F0A8F8104800684FF0804210F0010FF0
:100FA0000E48A0F108010CD0831D1B784BB1002323
:100FB0000370506A0A4A1060486802F13001086004
:100FC00010BD526A074B1A6003F130024968116084
:100FD0000121017010BD000010040240300100200A
:100FE000540200206C02002010B5022000F07AF8B4
:100FF000104800684FF0804210F0020F0E48A0F138
:1010000008010CD0831D5B784BB100234370506AFC
:101010000A4A5060486802F13001486010BD526AC7
:10102000074B5A6003F13002496851600121417059
:1010300010BD0000100402403001002054020020C6
:101040006C0200202DE9F05F0024204FDFF878A02B
:10105000A34601264FF08048A7F10809A01D06FA13
:1010600000F5284600F044F840B3284600F03AF86E
:10107000DAF80000284213D015482044807878B16F
:10108000381980F802B0D8F82410124800EB840018
:1010900081601148D9F8041000EB840081600DE0F4
:1010A000D8F824100D4800EB840081600C48D9F872
:1010B000041000EB8400816038198670601CC4B293
:1010C000042CCBD3BDE8F09F100402403001002077
:1010D0003601002054020020840200206C0200200F
:1010E0009C0200200149086070470000143C014048
:1010F000054A00211268054B02401B6803421CBFD1
:10110000002A012108467047003C0140143C014080
:101110008379214A0168002B34D0136823EA010146
:101120001160111D0A6803689A430A60017901F190
:10113000804101F59E310A6803681A430A60174A24
:101140001168036899431160131D1968D0F800C035
:1011500021EA0C0119604179102908D001F1804180
:1011600001F59E310A6800681043086070471168F5
:10117000D0F800C041EA0C0111601968006808430A
:1011800018607047007900F1804000F59E300268D9
:1011900022EA010101607047003C0140083C014027
:1011A0002DE9F0010022012603270B6806FA02FC54
:1011B00003EA0C03634538D10568530007FA03F4CA
:1011C000A54305600D79D0F800809D4045EA0805EB
:1011D00005600D79012D18BF022D17D18568A54333
:1011E00085604D79D0F808809D4045EA0805856006
:1011F000456825EA0C0CC0F804C0D0F804C08D790D
:101200009540ADB24CEA050CC0F804C0D0F80CC053
:101210002CEA040CC0F80CC091F807C00CFA03F3D8
:10122000D0F80CC043EA0C03C360521C102ABCD394
:10123000BDE8F00170474B07DB0E9A40C90800EB90
:101240008100016A4FF00F0C0CFA03F3994301621D
:10125000016A1143016270472DE9F041344C2DEDD4
:10126000028BA0B0207801281EBF20B0BDEC028BFD
:10127000BDE8F0812F48FEF7ABFFC1B2002013AFED
:10128000002988BF2B4A05D9135C3B54401CC0B2CF
:101290008142F9D8A1F1080000F0FF0C264917F8A7
:1012A0000C0000260870562808BFA67135D04128CA
:1012B00033D10120A0710020024601466D46BCF1E9
:1012C000000F0DD97B5C2C2B2CD0C2EB0218A8444C
:1012D00008F80030401CC0B2491CC9B26145F1D3C6
:1012E00005F10F0003F078FA9FED158B51EC100B10
:1012F00053EC182BFFF71AF8FFF736F9E06005F109
:101300002D0003F069FA53EC182B51EC100BFFF78A
:101310000DF8FFF729F9A060267020B0BDEC028B14
:10132000BDE8F081501CC2B20020D5E700000000EB
:10133000C0000020DB000020C700002000000000EB
:1013400000000000006AF84070B50024F82500F0A5
:10135000B7FA00F009FA00F039F8204602F016FA60
:10136000284602F013FA00F02BF80A2004F016FECB
:101370000124A02500F0A4FA00F0F6F900F026F808
:10138000204602F003FA284602F000FA00F018F8AE
:101390000A2004F003FE0225002400F091FA00F078
:1013A000E3F900F013F8284602F0F0F9204602F0C5
:1013B000EDF900F005F8BDE870400A2004F0EEBD3C
:1013C00001490220088070471808024001490220A4
:1013D000088070471A08024010B500F071FA00F05A
:1013E000C3F9FFF7F3FF892002F0D0F9002002F0E3
:1013F000CDF90446FFF7E4FF14F0010F08BF10BD5C
:10140000FFF7E4FFC32002F0C1F902F02DFA264CE9
:10141000E08002F029FA608102F026FA2081FFF7CD
:10142000CFFFB4F9060010F5805F1FBFB4F90820A4
:1014300012F5805FB4F90A1011F5805F30D0B4F96D
:101440000030D4ED030AC01A00EE100AB8EEC00A4C
:1014500080EE201ABDEEC10A10EE100AE080B4F949
:101460000200D4ED040A101A00EE100AB8EEC00A09
:1014700080EE201ABDEEC10A10EE100A2081B4F9E8
:101480000400D4ED050A081A00EE100AB8EEC00AEE
:1014900080EE201ABDEEC10A10EE100A608110BD68
:1014A0000020E0802081F9E730000020FEE7000006
:1014B000054940F634000860091D0860091D0860F0
:1014C000091D086070470000340C00400000000057
:1014D0002DE9F04152482DED028B84B000780128AF
:1014E0007ED1504890ED010ADFED4F0A60EE200AF0
:1014F000FDEEE00A10EE900A0A287EDBDFED4B0AD3
:1015000030EE600A9FED4A1ADFED4A0A4A4D40EE7E
:10151000010AB5F90070B5F9026007EB0608BCEEE8
:10152000E00A10EE100A84B2C8F10000FEF7DFFFF7
:101530009FED438B53EC182BFEF7F8FEFEF7F5FFFB
:1015400004FA80F0AD88401BADF80200F01BFEF7F6
:10155000CEFF53EC182BFEF7E9FEFEF7E6FF04FA88
:1015600080F02844ADF804004046FEF7C0FF53EC7D
:10157000182BFEF7DBFEFEF7D8FF04FA80F0401BC5
:10158000ADF80600B81BFEF7B2FF53EC182BFEF7C0
:10159000CDFEFEF7CAFF04FA80F02844ADF808003B
:1015A000012040F6FC036A4640F6D86C32F8101071
:1015B000994238BF22F8103003D38C4538BF22F847
:1015C00010C0401CC0B20528F0D31F49BDF802006E
:1015D0000860091DBDF804000860BDF8060001E0C0
:1015E0000FE00AE0091D0860091DBDF80800086049
:1015F00004B0BDEC028BBDE8F081144800780128EE
:1016000006D004B0BDEC028BBDE8F041FFF750BF3F
:1016100004B0BDEC028BBDE8F04100F019B8000049
:1016200028010020140100200000C842CDCCCC3D90
:1016300000C0C64400C00F4520010020000000008B
:101640001B0DE02D90A0E63F340C00402901002046
:10165000054940F6A2000860091D0860091D0860E0
:10166000091D086070470000340C00403A48B0F98A
:101670001410B0F90E20891A00EE101AB0F90810F3
:10168000F8EEC00A00EE101A3449B8EEC00A80EE37
:10169000801A81ED001AB0F91220B0F90C30D21A7C
:1016A00000EE102AB0F90620F8EEC00A00EE102A6B
:1016B000B8EEC00A80EE801A81ED011AB0F916204A
:1016C000B0F91030D21A00EE102AB0F90A20F8EE64
:1016D000C00A00EE102AB8EEC00A80EE801A81ED32
:1016E000021AB0F91C1000EE101AB0F90210F8EE50
:1016F000C00A00EE101A1B49B8EEC00A70EEC00A0C
:101700009FED170A80EE801A81ED001AB0F91A20B9
:1017100000EE902AB0F90020B8EEE01A00EE902A10
:10172000F8EEE00A71EE600A80EE801A81ED011A8F
:10173000B0F91E20B0F9040000EE902AB8EEE01ACD
:1017400000EE900AF8EEE00A71EE600A80EE801A70
:1017500081ED021A70470000480000205C01002063
:101760003333034268010020014904200880704798
:101770001808024001490420088070471A080240F6
:1017800070B56B240125FFF71BFE00F099F8FFF7F9
:10179000F1FF204601F0FAFF284601F0F7FFFFF7BE
:1017A000E3FF0A2004F0FAFB19240025FFF708FEE6
:1017B00000F086F8FFF7DEFF204601F0E7FF28463D
:1017C00001F0E4FFFFF7D0FF0A2004F0E7FB6A24F2
:1017D0001125FFF7F5FD00F073F8FFF7CBFF20466A
:1017E00001F0D4FF284601F0D1FFFFF7BDFF0A202A
:1017F00004F0D4FB1A250124FFF7E2FD00F060F8A5
:10180000FFF7B8FF284601F0C1FF204601F0BEFFF8
:10181000FFF7AAFF0A2004F0C1FB1B251024FFF7E5
:10182000CFFD00F04DF8FFF7A5FF284601F0AEFF11
:10183000204601F0ABFFFFF797FF0A2004F0AEFB54
:101840001C250824FFF7BCFD00F03AF8FFF792FFD3
:10185000284601F09BFF204601F098FFFFF784FF28
:10186000BDE870400A2004F099BB000010B5FFF7F6
:10187000A7FD00F025F8FFF77DFFBB2001F086FFF4
:1018800001F0F2FF0D4C4042608201F0EDFF40425A
:10189000A08201F0E9FF4042E08201F0E5FF2083F1
:1018A00001F0E2FF608301F0DFFFA08301F0DCFFC5
:1018B000E083BDE81040FFF757BF0000480000205C
:1018C00001490120088070471808024001490120A1
:1018D000088070471A0802402DE9F041A026184DF3
:1018E000FFF742FFFFF76CFDFFF7F0FF1E2001F04E
:1018F0004DFF0A2004F052FBFFF7E2FF0024FFF740
:1019000033FFFFF75DFDFFF7E1FF06EB4400C0B2D8
:1019100001F03CFF01F0A8FF0746FFF7D1FF25F8D3
:101920001470601CC4B2082CE9D3054804F001FB14
:10193000A97B01F00F018142D2D1BDE8F081000006
:1019400074010020000000002DE9F0419E4C80460B
:101950002DED028B0025A0780F46012678B1214697
:10196000E0789A4F91ED0C8B062824BFBDEC028BDA
:10197000BDE8F081DFE800F0738AAED5FEFC207888
:1019800091494A7808B1B2B340E04AB9FFF7ECFE9A
:10199000FFF716FDFFF79AFF48F0400001F0F6FE52
:1019A0006078401CC0B26070042820D1FFF788FF27
:1019B000FFF7DAFEFFF704FDFFF788FF002001F0D4
:1019C000E5FE002001F0E2FE0004A061002001F02D
:1019D000DDFEA16941EA0020A061002001F0D6FEF1
:1019E000A1690843A061FFF76BFF26706570BDEC2D
:1019F000028BBDE8F081FFE7FFF7B6FEFFF7E0FCE2
:101A0000FFF764FF47F0500001F0C0FE6078401C13
:101A1000C0B260700428EAD1FFF752FFFFF7A4FEBE
:101A2000FFF7CEFCFFF752FF002001F0AFFE0020D1
:101A300001F0ACFE0004E061002001F0A7FEE169C6
:101A400041EA0020E061002001F0A0FEE1690843C6
:101A5000E061FFF735FF25706570A670C7E77889EC
:101A600000EE100AF8EE400A94ED070AB8EE400ABC
:101A70009FED571A00EEC10A10EE100AFEF78DFD19
:101A800041EC100B84ED0C0BE670B0E79FED521BA0
:101A90009FED530B02F0BCFEB0EE408AF0EE608A80
:101AA000B889FEF735FD94ED0C1B53EC112BFEF7B6
:101AB0003DFC53EC182BFEF7ABFC9FED4B1B53EC9E
:101AC000112BFEF78CFB41EC100B84ED0A0BE07838
:101AD000401C24E03889FEF71BFD53EC182BFEF761
:101AE00025FC9FED431B53EC112BFEF71FFC41EC33
:101AF000180BB88800EE100AB8EE400ADFED3E0A77
:101B000020EE200A10EE100AFEF747FD53EC182BCA
:101B1000FEF765FB41EC100B032084ED0E0BE0702B
:101B200065E7F888FEF7F4FC53EC182BFEF7FEFB94
:101B30009FED331B53EC112BFEF7F8FB41EC180B18
:101B40007888DFED310A00EE100AB8EE400A20EE88
:101B5000200A10EE100AFEF720FD53EC182BFEF7BA
:101B60003EFB41EC100B042084ED100BE0703EE7CF
:101B700013E0FFE7A069FEF7CBFC94ED101B53ECDC
:101B8000112BFEF7D3FB9FED221B53EC112BFEF71D
:101B9000CDFB41EC100B84ED080B94ED0E0B53ECD8
:101BA000102B94ED080B51EC100BFEF7B9FB9FEDD9
:101BB0001A1B53EC112BFEF7B9FB41EC100B84ED13
:101BC000080BE570A57012E7680000207401002082
:101BD00000008043000000000000000000003740CB
:101BE00000000000000000400000000000409F4096
:101BF000000000000000803F00008047000000005F
:101C0000000000000000703F0000004700000000DE
:101C1000000000000000A03E000000000000003FA7
:101C200010B5B5EEC03A2DED0A0BF1EE10FA2DED20
:101C3000108B8CB001BFF5EEC03AF1EE10FAB5EEA4
:101C4000C04AF1EE10FA07D10CB0BDEC108B0AB00F
:101C5000BDE8104000F0BCBAFE4CF5EEC01AD4ED61
:101C6000024AD4ED035A20EE645AD4ED034A04EE3E
:101C7000E05AD4ED044A04EEC15AF6EE004A25EECD
:101C800024FA94ED015A25EE005A05EE815AD4ED5E
:101C9000045A05EEE05AD4ED025A65EE24EA94EDBA
:101CA000015A25EE205A05EEC15AD4ED045A05EE2C
:101CB000805A25EE24EA94ED015A25EE011A94ED9E
:101CC000025A05EE201AD4ED030A00EEC01A61EEA6
:101CD00024DAF1EE10FA01BFB5EEC02AF1EE10FAE7
:101CE000F5EEC02AF1EE10FA00F01E8221EEA10AF4
:101CF00002EE020A02EEA20A04F02EFB21EE806A36
:101D000062EE001A8DED1F6A22EE806A23EE030A4E
:101D1000CDED201A8DED216A03EEA30A04EE040A2C
:101D200004F01AFB23EE009A63EE808A24EE008A08
:101D300094ED010AF0EE00AA20EE2A0A60EE091ADC
:101D4000CDED091A94ED010A20EE2A0A20EE280AA8
:101D50008DED080A94ED010A20EE2A0A60EE080AC9
:101D600094ED020A20EE2A0A60EE091ACDED071A58
:101D700094ED010A60EE2A6ACDED066A94ED020A3E
:101D800020EE2ACA94ED030A60EE2ABA94ED040A02
:101D900020EE2A2A8DED032A94ED010A20EE2A1A5C
:101DA00094ED030A61EE001ACDED0A1A94ED030AD0
:101DB00094ED041A20EE2A0A20EE011A8DED021A83
:101DC00094ED011A94ED010A21EE00DA94ED010A76
:101DD00094ED021A20EE012A8DED002A94ED010AFD
:101DE00094ED031A60EE01FA94ED010A94ED041AE1
:101DF00060EE013ACDED053A94ED020A94ED021A37
:101E000020EE01AA94ED020A94ED031A20EE012AB5
:101E10008DED042A94ED020A94ED041A60EE01CAD5
:101E200094ED030A94ED031A60EE019A94ED030A0F
:101E300094ED041A60EE013ACDED013A94ED040AF6
:101E400094ED041A20EE01BA29EE0D1A9DED080A50
:101E5000D4ED041A00EE611A94ED030AD4ED031ACE
:101E600000EE801A2CEE280A09EE0A1A00EE211A5A
:101E70002CEE080AD4ED041A00EE211ADDED091A41
:101E800094ED040A21EE800AD4ED021A09EE691AD3
:101E900008EE8D0A09EE4B1A00EEE10ADDED071A95
:101EA000D4ED030A01EEA00A6BEE880AD4ED041A01
:101EB00008EECA0A08EEA90A00EEA10A61EE010ABC
:101EC00008EECB0A40EE000A10EE900AFEF765FB22
:101ED00041EC100B03F0E4FA51EC100BFEF770FB31
:101EE0009DED080A94ED021ADDED091A9DED002A18
:101EF00020EE010A94ED031A9DED1F6A00EE900A90
:101F000001EEC10ADDED071A94ED041A3CEEEF3A3A
:101F1000DDED053ADDED066A08EE0D0AB1EE007A58
:101F200060EEAA5A01EE810A2BEEA81AD4ED041A2B
:101F300008EE4A0A01EE210A9DED021ADDED201A93
:101F400002EE2A1A08EE690A31EE611ADDED0A1A6C
:101F500008EE0B0A5CEEAA1A21EE0C5A60EE2A4A31
:101F600071EEC62AF6EE001A31EEE92A0BEEE25ABD
:101F700071EECA1A32EE4B2A71EEE91A22EE202ACD
:101F800000EE032A32EE493A94ED032A20EE022AAB
:101F900002EE435A94ED022A20EE024A94ED042AFE
:101FA00000EEC24A9DED042A32EE632ADDED013ACD
:101FB00022EE206A9DED002A32EE232A00EE026A0C
:101FC0003FEEAC2A22EE202A76EE683A9DED216A99
:101FD00000EE212AD4ED031A04EE235A60EEA11A72
:101FE00032EE484A9DED032A01EE845A62EE821ACF
:101FF000B7EE002A0AEE6A2A46EE811A09EEEA2AAC
:1020000032EE466A94ED022A22EE072AD4ED016AE6
:1020100042EE461A94ED042A20EE022A42EE031AFA
:1020200094ED032A20EE822A00EE262AD4ED026ADD
:1020300042EE231A94ED042A20EE822A04EEE62AC8
:10204000DDED066A42EE041A9DED032A21EE022A16
:1020500002E000001400002006EEE22AD4ED036A3C
:1020600062EE8C2A66EE876A4BEE812A94ED021AA4
:1020700006EEC62A20EEEA6AD4ED036A20EE011AC3
:1020800026EE266AD4ED016A00EE666AD4ED046A93
:1020900006EE032A94ED026A20EE866A00EE266AB6
:1020A000D4ED036A06EE232A94ED016A20EE866AD7
:1020B00004EEE66AD4ED044A05EEE41A06EE042ABC
:1020C00041EE032A94ED031A20EE010A94ED011A61
:1020D00000EEC10A40EE232A94ED020A20EE800AA7
:1020E00040EE042A25EE050A01EEA10A02EE020ADC
:1020F00002EEA20A04F030F921EE801A65EE000A21
:1021000062EE001A94ED002A22EE800A02EE60FAD6
:10211000D4ED000A40EEC1EAD4ED000A00EEE1EA97
:10212000D4ED000A40EEC0DAD4ED010A9FED270A93
:102130004FEE000AC4ED010AD4ED020A4EEE800A09
:10214000C4ED020AD4ED030A4EEE000AC4ED030A00
:10215000D4ED040A4DEE800AC4ED040A94ED010AA0
:10216000D4ED010A94ED021A20EE200AD4ED020A01
:1021700000EE810AD4ED030A94ED031A00EE810A01
:10218000D4ED040A94ED041A00EE810A04F0E4F898
:10219000D4ED010A60EE800AC4ED010AD4ED020A12
:1021A00060EE800AC4ED020AD4ED030A60EE800AF4
:1021B000C4ED030AD4ED040A20EE800A84ED040A7B
:1021C0000CB0BDEC108B0AB010BD00000AD7A33BC9
:1021D00000B5A64AF6EE004A2DED088BF5EEC01AC2
:1021E00092ED023AD2ED033A92ED025A20EE433AD2
:1021F00003EEE03AD2ED043A03EEC13AD2ED033AEF
:1022000023EE244A92ED013A23EE003A03EE813A9E
:10221000D2ED043A03EEE03A63EE243A92ED013A4D
:1022200023EE203A05EE413A92ED045A05EE003ACB
:1022300092ED015A25EE011A92ED025A23EE243A4C
:1022400005EE201AD2ED030A00EEC01A61EE244A10
:10225000F1EE10FA01BFB5EEC02AF1EE10FAF5EE7C
:10226000C02AF1EE10FA7CD021EEA10A02EE020A99
:1022700002EEA20A04F070F861EE800A22EE001A63
:1022800062EE807AD2ED011AB0EE000AF1EE00AAF9
:1022900021EE809AD2ED021AD2ED035A92ED048A11
:1022A00061EE806AD2ED031A92ED02BA21EE806AE5
:1022B000D2ED041A61EE808A92ED010AD2ED021A83
:1022C00020EE2A2A92ED020A60EE2A2A92ED030AF3
:1022D00020EE2A5AB2EE000A61EE809AD2ED031A7D
:1022E00021EE807A92ED010AD2ED011A20EE21AAA8
:1022F00092ED020AD2ED021A2AEE2AAA60EE211A03
:1023000092ED030A20EE250AD2ED045A25EE888AC2
:1023100062EE005A46EE205A42EE215A22EE882AF8
:1023200008EEE02A46EEC15A0AEE0B2A09EE412ACF
:1023300032EE622A09EEA12A09EE802A02EEA72ACD
:10234000D2ED032A6AEE222A49EE202A45EE082A17
:1023500048EEC12A72EEC52A47EE212A47EE002A2E
:1023600000E033E045EE272A61EEAA1A92ED045A06
:1023700020EE2A0A61EE851A46EEE01AD2ED040A32
:1023800040EE201A25EEA50A02EE020A46EE411A98
:1023900002EEA20A01EEA10A03F0DEFF22EE001A0D
:1023A00065EE800A22EE802A21EE800AD2ED001A24
:1023B00001EEE04AD2ED000A40EEC13AD2ED000A49
:1023C00000EEC23AD2ED000A40EEC04AD2ED010A58
:1023D0009FED270A44EE000AC2ED010AD2ED020A7F
:1023E00043EE800AC2ED020AD2ED030A43EE000A70
:1023F000C2ED030AD2ED040A44EE800AC2ED040ADB
:1024000092ED010AD2ED010A92ED021A20EE200AA5
:10241000D2ED020A00EE810AD2ED030A92ED031A10
:1024200000EE810AD2ED040A92ED041A00EE810A50
:1024300003F092FFD2ED010A60EE800AC2ED010ABC
:10244000D2ED020A60EE800AC2ED020AD2ED030A62
:1024500060EE800AC2ED030AD2ED040A20EE800A83
:1024600082ED040ABDEC088B00BD000014000020C2
:102470000AD7A33BFEE7000070B501218CB00846E7
:1024800000F03AFE0121082000F042FE02208DF803
:10249000240000240F208DF8264008908DF8274056
:1024A00003203C4D8DF8250008A92846FEF778FE4C
:1024B000022200212846FEF7BEFE02220121284604
:1024C000FEF7B9FE022211462846FEF7B4FE0222AC
:1024D00003212846FEF7AFFE40F6F2700690ADF8F5
:1024E000164015202C4EADF81C40ADF814008DF8A8
:1024F0001E4005A9304601F0EFFB0122114630468F
:1025000001F0D5FA0121304601F0B3FA6021ADF8AF
:1025100000100125ADF802500294ADF80C40694658
:10252000304601F0CCFA6946304601F002FB6946BC
:10253000304601F04BFB6946304601F08FFB082125
:10254000304601F0F0FA0821304601F035FB082151
:10255000304601F07DFB0821304601F0B3FB01213C
:10256000304601F07DFA0121304601F085FA4FF442
:10257000E06000F04FF832208DF828008DF82B50E5
:102580008DF8294005208DF82A000AA800F008F8E7
:102590000CB070BD00000240000C0040704700000D
:1025A00030B4C27801784FF00F0C01244FF0E025D1
:1025B00002B3164A126802F4E062C2F5E062C2F3A6
:1025C0000722C2F104032CFA02FC42789A40837875
:1025D00003EA0C031A430E4B1201CA54007800F0B0
:1025E0001F0104FA01F1400905EB8000C0F8001159
:1025F00030BC704701F01F0004FA00F0490905EBF8
:102600008101C1F8800130BC704700000CED00E092
:1026100000E400E0034940F0FD7040F08060086095
:10262000704700000CED00E00E48B2EE000ADFED4E
:102630000E0A00F1140180ED000A9FED0C1A00F162
:102640002802C1ED000A82ED001A80ED010A9FED1B
:10265000080AC1ED010A80ED020A9FED060A81ED2C
:10266000020A7047F40100209A9999400000000086
:102670000000CC416666A6402DE9F04FE248E34DEC
:102680002DED028B007801284FF0000018BF0021CB
:1026900008D025F81010401C0328FADBBDEC028B93
:1026A000BDE8F08FDB49DA4ED1ED022A9FEDDA5A10
:1026B0009FEDDA7ADA4A1431D1ED020A92ED020A7C
:1026C00020EE802ADFEDD75ADFEDD77A1431DFF81C
:1026D000608391ED024AD549D64FB1F900C0CCF1E3
:1026E00000019FEDD56AD54A92ED003ADFEDD43A6C
:1026F000DFEDD44ADFEDD46AD44CD54ACB4B02EBA4
:102700008002022892ED000AD24A02EB8002D2ED4A
:10271000000A30EE600A83ED020A93ED020A10EE21
:10272000102A00F0CE80BA422CBFB0EE460A93EDDC
:10273000020A10EE102A4245A8BF9FEDC70A09DA27
:1027400093ED020A10EE102ABA4234BF93ED020A4A
:10275000B0EE460A83ED020AAE4AD3ED020A02EB5E
:102760008002DFF8F89292ED000A60EE200A10EE87
:10277000902A4A453ABFD3ED020A60EE200AF0EEF5
:10278000630A10EE902ADFF8D8A25245A8BFF0EEF7
:10279000641A0DDAD3ED020A60EE200A10EE902AD8
:1027A0004A453ABFD3ED020A60EE201AF0EE631AF2
:1027B000AC4ADFF8B8B202EB8002C2ED001AAA4AB6
:1027C00002EB800292ED000A954A02EB8002D2ED04
:1027D000000A20EE201A11EE102A5A4534BFB0EE3E
:1027E000410A9FEDA30A10EE102ADFF888E2724535
:1027F000A8BF9FEDA11A05DA11EE102A5A4528BF8D
:102800009FED9B1A9D4AB8EE430A02EB800282EDCF
:10281000001A9FED9B8ADFF870B29A4AC0EE080A50
:102820000BEB800BD3ED028A9BED008A02EB80025A
:1028300028EE288A92ED000A08EE200A10EE103ADF
:1028400082ED000A4B4534BFF0EE400AF0EE630A19
:1028500010EE903A5345A8BFB0EE640A05DA10EEC8
:10286000103A4B4528BFB0EE630A82ED000A71EEC4
:10287000810A864A30EE800A10EE103A934234BF45
:10288000F0EE400AF0EE660A10EE903ADFF80092A1
:102890004B45A8BF9FED7F0A05DA10EE103A934230
:1028A00028BFB0EE660ABDEEC00A10EE102A25F869
:1028B0001020401C0328FFF620AFBDEC028BBDE8C2
:1028C000F08FDFF8D49193ED020A4A45C4BFDFEDE3
:1028D000730A30EE600A0BDC10EE102ADFF8C091AC
:1028E0004A4507D993ED020ADFED6C0A30EE200A63
:1028F00083ED020A93ED020A22EE800A10EE102AFE
:10290000964286BF93ED020A22EE800AB0EE450A97
:1029100010EE102ADFF88C914A45A8BFB0EE471A96
:102920000DDA93ED020A22EE800A10EE102AB2426E
:102930003ABF93ED020A22EE801AB0EE451A494AD8
:1029400012EE109A82ED021A574A914534BFB0EE4A
:10295000420AB0EE650A10EE109ADFF850A1D14598
:10296000A8BFF0EE670A07DA12EE109A914534BF5D
:10297000F0EE420AF0EE650A404AB8EE430AF0EE85
:10298000601AC2ED020A9FED3E8A0C32C0EE080AC0
:1029900093ED028A92ED020A304B24EE088A08EE8B
:1029A000200A10EE102A84ED000A9A4234BFF0EE9D
:1029B000400AF0EE630A10EE902ADFF8A4904A4530
:1029C000A8BFB0EE640A05DA10EE102A9A4228BFBA
:1029D000B0EE630A2B4A71EE210A82ED020A30EE54
:1029E000800ABDEEC00A10EE102A12B2AA808A42F6
:1029F000CCBF13460B466345A8BF624602DA8A4243
:102A0000D8BF0A46AA8054E72A01002020010020EE
:102A10000000E1C3F40100200000E1C30000E14335
:102A2000680100200080BBC40080BB44140100206A
:102A300000002042000020C2000020C2B800002098
:102A40000000FAC30000FA4300C05AC5500200203B
:102A5000E801002044010020000020420000FAC3E9
:102A60000000FA43300200200802002000401CC58C
:102A700000401CC500401C4500401C453C02002095
:102A800000007A44480200201C02002000C05AC501
:102A900000C05A4500C05A45000034430000B4430A
:102AA000000034C30000E1430080BBC40080BB448D
:102AB0002DE9F04FA248B3B04FF0000B407958B366
:102AC000A048FDF785FBDFF87CA200F0FF08002698
:102AD0009AF800000125303800F0FF093446B8F1BB
:102AE000010F88BF6F4610D91AF805002C2819D09D
:102AF00040281BD006EB860107EB81010855601CBE
:102B0000C4B2681CC5B24545EED300200AF800B037
:102B1000401CC0B26428F9D3894880F805B033B0AE
:102B2000BDE8F08F0024701CC6B2EAE7B9F1070FC8
:102B3000E7D2DFE809F004052360A8C7E600E0E774
:102B400007F1140001F048FE51EC100BFDF7EDFC0D
:102B50007D49088007F1280001F03EFE51EC100B82
:102B6000FDF7E3FC7949088007F13C0001F034FEF1
:102B700051EC100BFDF7D9FC75493AE007F1140050
:102B800001F02AFE51EC100BFDF7CFFC71490880D3
:102B900007F1280001F020FE51EC100BFDF7C5FCF9
:102BA0006D49088007F13C0001F016FE51EC100B56
:102BB000FDF7BBFC6949088007F1500001F00CFEED
:102BC00051EC100BFDF7B1FC6549088007F164007A
:102BD00001F002FE51EC100BFDF7A7FC61490880E3
:102BE00007F1780001F0F8FD51EC100BFDF79DFCAA
:102BF0005D49088085E707F1140001F0EDFD51EC17
:102C0000100BFDF792FC5949B1F9002002FA80F04F
:102C1000088007F1280001F0DFFD51EC100BFDF7F3
:102C200084FC5349B1F9002002FA80F0088007F1D2
:102C30003C0001F0D1FD51EC100BFDF776FC4D4945
:102C4000B1F9002002FA80F0088007F1500001F08D
:102C5000C3FD51EC100BFDF7B3FC4749086007F1C9
:102C6000640001F0B9FD51EC100BFDF7A9FC4349DC
:102C7000086007F1780001F0AFFD51EC100BFDF793
:102C80009FFC3F491CE007F1140001F0A5FD51EC49
:102C9000100BFDF795FC3B49086007F1280001F097
:102CA0009BFD51EC100BFDF78BFC3749086007F1D9
:102CB0003C0001F091FD51EC100BFDF781FC334914
:102CC00008601EE707F1140001F086FD51EC100BBF
:102CD000FDF776FC2B49486007F1280001F07CFDE8
:102CE00051EC100BFDF76CFC2749486007F13C00E4
:102CF00001F072FD51EC100BFDF762FC23494860B6
:102D0000FFE607F1140001F067FD51EC100BFDF731
:102D100057FC1C49886007F1280001F05DFD51EC6B
:102D2000100BFDF74DFC1849886007F13C0001F0DD
:102D300053FD51EC100BFDF743FC14498860E0E6AD
:102D40000D01002084010020480000204A000020DE
:102D50004C000020540000205600002058000020A5
:102D60004E000020500000205200002030000020C3
:102D700032000020340000203C00002040000020F1
:102D800044000020F4010020080200201C02002062
:102D9000F8B5B34C0623B34A2079B3499FEDB30A83
:102DA000012815D0B24D022854D0032818BFF8BD11
:102DB0001370A678AF4ADFEDB00AB048DFF8C0C2A2
:102DC000052E80F04181DFE806F0C4CDE9FDFC006E
:102DD0001370207820B101280FD002281AD02DE0DE
:102DE000A848B0F90030A848B0F90020A748B0F9C9
:102DF0000010A7A001F062FA20E0A848B0F9003066
:102E0000A748B0F90020A748B0F90010A0A001F031
:102E100055FA13E0D1ED020AA34820EE800ABDEE78
:102E2000C00A8DED000AB0F90030A048B0F90020CA
:102E30009F48B0F900109FA001F040FA2078A14906
:102E4000401CC0B2A1FB00214908A1EB810108444C
:102E50002070F8BD137060780A286DD2DFE800F0AA
:102E6000050F1B27333F454E5962D1ED000A96A04E
:102E700020EE800ABDEEC00A10EE101A5AE0D1ED25
:102E8000010A91A020EE800ABDEEC00A10EE101AD1
:102E900001F014FA50E0D1ED020A8BA020EE800A76
:102EA000BDEEC00A10EE101A01F008FA44E087489F
:102EB00090ED000B51EC100BFDF737FB014682A0A3
:102EC00001F0FCF938E0824890ED000B51EC100B5A
:102ED000FDF72BFB01467CA001F0F0F92CE07D48CA
:102EE000017879A001F0EAF926E07B487B49006887
:102EF000B0FBF1F174A001F0E1F91DE076487749EB
:102F00000068B0FBF1F201FB12016FA001F0D6F9ED
:102F100012E0734801687148B1FBF0F16AA001F05A
:102F2000CDF909E06E486D490068B0FBF1F201FB94
:102F300012016CA001F0C2F96078401CC0B2A5FB80
:102F40000021C908494201EB810100EB410060709A
:102F5000F8BD6548B0F90430B0F90220B0F90010AE
:102F60004BA06FE0D1ED020A49A060EE800AFDEEB1
:102F7000E00A10EE903AD1ED010A60EE800AFDEE13
:102F8000E00A10EE902AD1ED000A20EE800ABDEE94
:102F9000C00A10EE101A01F091F955E092ED000A06
:102FA00020EE200ABCEEC00A10EE103A90ED000AA6
:102FB00020EE200ABCEEC00A10EE102A9CED000A9A
:102FC00001E026E009E020EE200A31A0BCEEC00AB4
:102FD00010EE101A01F072F936E092ED010A20EEBF
:102FE000200ABCEEC00A10EE103A90ED010A28A0AB
:102FF00020EE200ABCEEC00A10EE102A9CED010A59
:1030000020EE200ABCEEC00A10EE101A01F056F9AC
:103010001AE092ED020A20EE200ABCEEC00A10EE81
:10302000103A90ED020A31A020EE200ABCEEC00A50
:1030300010EE102A9CED020A20EE200ABCEEC00A17
:1030400010EE101A01F03AF9A078401CC0B2A5FBAE
:1030500000218908494201EB81010844A070F8BDB4
:103060000D010020B0000020440100200000C842F3
:10307000CDCCCCCC1C02002000007A4408020020F9
:10308000F40100206600002064000020620000209F
:1030900025642C25642C25642C0000005E00002093
:1030A0005C0000205A0000203A0000203800002078
:1030B0003600002025642C25642C25642C25640D05
:1030C00000000000ABAAAAAA25642C0088000020FA
:1030D00090000020C6000020CC000020A086010047
:1030E000C800002025640D002001002025642C2547
:1030F000642C25640D000000044A0029116814BFE7
:10310000084321EA00001060704700003038024098
:10311000044A0029116814BF084321EA0000106026
:103120007047000040380240044A0029116814BF6B
:10313000084321EA00001060704700004438024054
:103140000B48016841F0010101600A4A0021116049
:10315000026822F4102222F080720260031D064AE7
:103160001A60026822F480220260044801607047FD
:103170000038024008380240103000240C38024069
:10318000DFF88CC030B4DCF80010224D11F00C01D7
:1031900006D06C10042908BF046002D008291DD095
:1031A0000560DCF800100F221B4B02EA1111595C7C
:1031B000026822FA01F14160DCF80020072404EAE9
:1031C00092229A5C21FA02F28260DCF8002004EA82
:1031D00052329A5CD140C16030BC70470F4A1168CE
:1031E000C1F380531168002B01F03F0114BFB4FB01
:1031F000F1F1B5FBF1F113681268C3F38813594379
:10320000C2F30142521C5200B1FBF2F10160C8E767
:10321000083802400024F400020000200438024074
:1032200000224109012904BF0849096804D0022984
:103230000CBF07490749096800F01F00012303FA82
:1032400000F0084218BF01221046704700380240C3
:103250007038024074380240034A116821F0F001CE
:1032600008431060704700000838024002490022FD
:103270000A7008707047000002380240034A116863
:1032800021F4E05108431060704700000838024004
:1032900001490866704700000000474241EA821178
:1032A0005A08064BDDF800C003EB02421143084305
:1032B000034940EA0C600860704700000000FFFF0F
:1032C00004380240034A116821F0030108431060EA
:1032D000704700000838024008B500200B4A0090F3
:1032E0000020116811F4003F18BF01200099491C0B
:1032F0000091B1F5A06F01D00028F1D03120FFF787
:103300008FFF002818BF012008BD000000380240D0
:1033100008B5FFF715FF0020FFF7BAFF0120FFF700
:10332000A5FFFFF7D9FF0028FBD007200821009058
:1033300002234FF4A872C804FFF7B0FF0120FFF783
:10334000A7FF3920FFF76CFF0028FAD09020FFF785
:1033500083FF0020FFF792FFBDE808400220FFF73F
:10336000B1BF00002DE9F00F5E4E5D4D0020AC1D99
:103370000246A6F11807A6F13008A6F1480940F662
:103380005F1A012306F1180C295CC9B156F8201008
:1033900057F820B0A1EB0B0140F6354B01FB0BF1C8
:1033A00058F820B00BEB011159F820B02254A1EBD2
:1033B0000B01A1F2A56BD34538BF4CF82010235464
:1033C000401CC0B20628DFD3DCF80000A0F6523162
:1033D000A0F532649FED440A4448652C38BF80ED67
:1033E000000A0CD36FF04F04614340F2163491FB96
:1033F000F4F100EE901AF8EEE00AC0ED000ADCF8F5
:103400000440A4F64F31A4F61D34652C38BF80ED7E
:10341000010A0CD301EB8101090140F22C6491FBFC
:10342000F4F100EE901AF8EEE00AC0ED010ADCF8C3
:103430000810324CA1F6480100EE901A2E49B8EE61
:10344000E01ADFED2B0A61EE200A9FED2A1AC0EE8A
:10345000811AC1ED001AA17881B3DCF80C10DFF8F5
:103460008CC0A1F67631DFED260A9CED020A11F13F
:10347000320FBCBFE37030EE600A08DB3229C7BFF1
:10348000E37030EE200AE27090ED020A01DD80ED7B
:10349000020A10EE101A1B4ADFED1B0A9142C8BF48
:1034A00030EE600A16DC10EE101A184A914288BFFE
:1034B00030EE200A0ED8BDE8F00F7047FFE780ED30
:1034C000020A134890ED020A124880ED000ABDE896
:1034D000F00F704780ED020ABDE8F00F7047000062
:1034E000300100209C02002000000000E8010020C4
:1034F000CDCC4C3F0020C5441801002028010020FD
:10350000CDCC4C3E000034430000B443000034C333
:1035100044010020280000202DE9F04389B001215A
:103520000220FFF7E9FD01218803FFF7FDFD0121DE
:103530000846FFF7EDFD00248DF81C400125DFF85B
:10354000689140F2C3378DF81F504FF0020806977C
:103550008DF81D8006A94846FDF722FE8DF81C5007
:1035600008208DF81F5006908DF81E4003268DF818
:103570001D6006A94846FDF713FE0021012000F05A
:103580007DF90121084600F079F90621012000F0BB
:1035900075F90721012000F071F90821012000F0E0
:1035A0006DF90921012000F069F98DF816508DF8A8
:1035B000144010208DF81500049704A8FDF7A8FD0D
:1035C0000120FDF78FFD0220FDF78CFD4020FDF767
:1035D00089FD8020FDF786FD2802FDF783FD680246
:1035E000FDF780FD4CF250300190ADF802401520FF
:1035F000ADF80840ADF800008DF80A406946800734
:1036000000F06AFB01221146900700F050FA0121F8
:10361000880700F02EFA0121880700F02DFA4FF4F8
:10362000E060FEF7F7FF06208DF80C008DF80F50D4
:103630008DF80D408DF80E5003A8FEF7B1FF4FF442
:10364000E060FEF7E7FF07208DF80C008DF80F50C3
:103650008DF80D408DF80E8003A8FEF7A1FF4FF402
:10366000E060FEF7D7FF17208DF80C008DF80F50A3
:103670008DF80D408DF80E6003A8FEF791FF4FF412
:10368000E060FEF7C7FF1C208DF80C008DF80F508E
:103690008DF80D4004208DF80E0003A8FEF780FF82
:1036A00009B0BDE8F08300000004024070B50121BC
:1036B00088B00846FFF720FD01210420FFF71CFD1C
:1036C00001210803FFF730FD01258DF80450002487
:1036D0008DF806408DF80750032007268DF8050069
:1036E000009669462548FDF75BFD254804210180C9
:1036F0000221018005808DF804108DF80640E0203D
:103700008DF807401F4D00908DF80510694628463A
:10371000FDF746FD052211462846FDF78CFD0522E2
:1037200006212846FDF787FD052207212846FDF7DB
:1037300082FD2820ADF81400ADF80840ADF80E4029
:103740004FF48270ADF81040ADF80C40ADF8164063
:10375000ADF80A0068150C4CADF81200ADF8186011
:1037600002A9204600F056F80121204600F03EF85C
:103770000A2002F013FC08B070BD000000080240EF
:1037800018080240000002400030014070B5164D9C
:1037900006464FF480540221284600F030F848B91C
:1037A000601E0404240C05D00221284600F027F8EE
:1037B0000028F5D03146284600F02AF84FF480540E
:1037C0000121284600F01BF848B9601E0404240CAF
:1037D00005D00121284600F012F80028F5D028462F
:1037E00000F014F8C0B270BD00300140002901881B
:1037F00014BF41F0400121F04001018070470246B2
:10380000002012890A4218BF012070478089704742
:103810008181704710B402880B88B1F802C0CC884F
:1038200043EA0C03B1F804C002F441524CEA040C20
:1038300043EA0C03B1F808C043EA0C03B1F80AC02C
:1038400043EA0C03B1F80CC043EA0C03B1F80EC014
:1038500043EA0C031A430280828B22F400628283C3
:10386000098A018210BC704710B50020FFF78EFF57
:1038700004020020FFF78AFF204310BD8A0721F0D1
:10388000030C0749120F61440F23D1F800C0934085
:103890002CEA03030B600B689040184308607047E4
:1038A000083801404FF0E021042808690CBF40F0BF
:1038B000040020F00400086170470000044801681B
:1038C000002908BF70470168491E01607047000069
:1038D0002C0000203B4882B0016841F47001016077
:1038E0003948016841F00101016038494FF0000C8E
:1038F000C1F800C0026822F4102222F08072026037
:10390000031D334A1A60026822F4802202600A1DF5
:10391000C2F800C0CDF800C0CDF804C0026842F47F
:1039200080320260026802F400320192009A521C56
:103930000092019A1AB9009AB2F5A06FF2D102680A
:1039400012F4003F08BFCDF804C034D00122019228
:10395000204AD2F800C04CF0805CC2F800C01E4A79
:10396000D2F800C04CF4804CC2F800C00A680A606B
:103970000A6842F400420A600A6842F4A0520A60EF
:10398000164A1A60026842F080720260026812F001
:10399000007FFBD0124A40F205601060086820F0FA
:1039A00003000860086840F002000860086800F042
:1039B0000C000828FAD10B494FF00060086002B0F3
:1039C0007047000088ED00E00038024008380240EF
:1039D0001030002440380240007000400854400776
:1039E000003C024008ED00E010B5084C01212046E3
:1039F00000F04BF818B106480168491C01602046E8
:103A0000BDE81040012100F034B800000000014082
:103A1000B400002010B50121880700F03DF800280F
:103A200008BF10BD04484168491C41600121BDE840
:103A30001040880700F01DB82801002010B5074C81
:103A40000121204600F028F8002808BF10BD012100
:103A50002046BDE8104000F00CB80000000C00400B
:103A60000029018814BF41F0800121F0800101800C
:103A70007047C943018270470029018814BF41F093
:103A8000010121F001010180704702460020128AE5
:103A90000A4218BF01207047038A002280890B4226
:103AA00000EA01001CBF0028012210467047002ACE
:103AB000828914BF114322EA01018181704710B449
:103AC000028C22F001020284028C8388B0F818C0B4
:103AD0000C882CF0730C44EA0C0C8C8922F0020246
:103AE00022434C882243A0F18044B4F580341CBFAB
:103AF000A0F18044B4F582340DD1CC8922F00802C3
:103B000022438C8822F0040222430C8A23F440735F
:103B100023434C8A23438380A0F818C089684163FB
:103B2000028410BC7047028B22F00802114301830B
:103B3000704730B4028C22F010020284028C838819
:103B4000B0F818C00D882CF4E6444FF6FF7C0CEA60
:103B500005252C438D8922F020020CEA05152A4305
:103B60004D880CEA05152A43A0F18045B5F580354E
:103B70001CBFA0F18045B5F5823516D1CD8922F064
:103B800080020CEA05152A438D8822F040020CEAD7
:103B900005152A430D8A23F440630CEA85052B435F
:103BA0004D8A0CEA850C4CEA030383800483896800
:103BB0008163028430BC7047028B4FF6FF7322F49E
:103BC000006203EA012111430183704730B4028C83
:103BD00022F480720284028C8388B0F81CC00C88A6
:103BE0002CF0730C44EA0C048D894FF6FF7C22F410
:103BF00000720CEA05252A434D880CEA05252A4364
:103C0000A0F18045B5F580351CBFA0F18045B5F524
:103C1000823516D1CD8922F400620CEA05252A43AB
:103C20008D8822F480620CEA05252A430D8A23F44C
:103C300040530CEA05152B434D8A0CEA051C4CEA4F
:103C40000303838084838968C163028430BC704726
:103C5000828B22F0080211438183704730B4028CBA
:103C600022F480520284038C8288B0F81CC00D8834
:103C70004FF6FF742CF4E64C04EA052545EA0C0CDB
:103C80008D8923F4005304EA05352B434D8804EA5B
:103C900005352B43A0F18045B5F580351CBFA0F15B
:103CA0008045B5F5823505D10D8A22F4804204EABB
:103CB000851422438280A0F81CC0896801640384B3
:103CC00030BC7047828B4FF6FF7322F4006203EA28
:103CD000012111438183704710B402881C4BDFF827
:103CE00074C0984218BF604511D0B0F1804F1CBF1E
:103CF000A0F18044B4F5806409D0A0F18044B4F50B
:103D000000641CBFA0F18044B4F5406403D14C882A
:103D100022F070022243A0F18044B4F580541CBF0D
:103D2000A0F18044B4F5A05403D00C8922F4407271
:103D3000224302804A68C2620A880285984212BF02
:103D40006045897A01860121818210BC704700009C
:103D5000000001400004014010B5012184B0084674
:103D6000FFF7E2F94FF4E060FEF754FC19208DF8FC
:103D70000C0001208DF80F0000248DF80D40032069
:103D80008DF80E0003A8FEF70BFCADF808404FF4C9
:103D9000FA60ADF8024001908DF80A4014200B4CF7
:103DA000ADF8000069462046FFF796FF0122114654
:103DB0002046FFF77CFE01212046FFF75AFE012135
:103DC0002046FFF759FE04B010BD0000000001407E
:103DD0002DE9F0410746012188B00846FFF78CF92C
:103DE00001211020FFF7A0F902208DF81400002413
:103DF0008DF816404FF4C0610125DFF898800491DA
:103E00008DF8175003268DF8156004A94046FDF77C
:103E1000C7F907220A214046FDF70DFA07220921BA
:103E20004046FDF708FA00970C20ADF80A001A4F3B
:103E3000ADF80C40ADF80840ADF80640694638468C
:103E400000F0D6F9012240F22551384600F0B7F9CA
:103E5000002240F22661384600F0B1F940F22551C7
:103E6000384600F074F97002FEF7D4FB25218DF876
:103E700018108DF81B508DF819408DF81A6006A89F
:103E8000FEF78EFB0121384600F068F908B0BDE866
:103E9000F08100000000024000100140F0B505462E
:103EA00087B001210220FFF727F901218804FFF7DD
:103EB0002FF902218DF8141000244FF440618DF881
:103EC0001640012604918DF817600321204F8DF8CC
:103ED000151004A93846FDF763F907220A21384670
:103EE000FDF7A9F907220B213846FDF7A4F9009543
:103EF0000C20ADF80A00174DADF80C40ADF80840A5
:103F0000ADF806406946284600F072F9012240F2F9
:103F10002551284600F053F940F22551284600F07B
:103F200016F94FF4C060FEF775FB27218DF81810C5
:103F30008DF81B608DF819408DF81A4006A8FEF721
:103F40002FFB0121284600F009F907B0F0BD000061
:103F5000000402400048004070B5284C40F2255152
:103F6000204600F00BF9002808BF70BD204600F085
:103F70009BF9C1B201200022214D242906D02B79C2
:103F800005F11B0C5BB1012B2CD030E069780029C6
:103F900018BF28706A702A71EA70687127E0194E9C
:103FA000EB78F154761DF65CB14218BF6A71042BB0
:103FB00002BF69790129002108D10CF80120491CB0
:103FC000C9B23229F9D32871AA706870581C0E49F9
:103FD000C0B2A1FB00218908494201EB81010844DC
:103FE000E87004E0A8780CF80010401CA870204687
:103FF000BDE8704040F2255100F0A9B800480040EB
:10400000C0000020D0000020CDCCCCCCF0B50646BE
:1040100087B001210420FFF76FF801212020FFF76E
:1040200083F802218DF814100024C0218DF8164069
:10403000012504918DF817500321224F8DF815109A
:1040400004A93846FDF7ACF8082206213846FDF7EA
:10405000F2F8082207213846FDF7EDF800960C200B
:10406000ADF80A00184EADF80C40ADF80840ADF8B8
:1040700006406946304600F0BBF8012240F2255167
:10408000304600F09CF82021304600F05DF840F208
:104090002551304600F05BF84FF4C060FEF7BAFAE5
:1040A00047218DF818108DF81B508DF819408DF8A8
:1040B0001A5006A8FEF774FA0121304600F04EF8B7
:1040C00007B0F0BD000802400014014010B51A4CC2
:1040D00040F22551204600F051F8002808BF10BDDD
:1040E00016480088164BC1B20120252908BFD87098
:1040F0001BD0262909D0DA78012A04BFA1F13000AB
:10410000187112D0022A06D00FE00220D8700020C9
:104110009871587109E0DFF82CC09A790CF80210F8
:10412000521C9A71402908BF587140F2255120460F
:10413000BDE8104000F00BB8001401400414014029
:104140000D01002084010020C94301807047090A45
:10415000012202FA01F1C9430180704700298189D7
:1041600014BF41F4005121F400518181704702468F
:10417000002012880A4218BF0120704710B401F0D5
:104180001F020124C1F3421304FA02F24FF0000CA3
:10419000012B04BF83891A4004D0022B0CBF038A71
:1041A000838A1A40090A008804FA01F10840002AAB
:1041B0001CBF00284FF0010C604610BC7047C1F3D3
:1041C000421301F01F014FF0010C0CFA01F1012B19
:1041D00008BF0C3003D0022B0CBF10301430002A63
:1041E000026814BF114322EA010101607047000018
:1041F00030B50446008A85B00D46C98820F4405089
:1042000008432082A089A9882A8920F403701143D9
:104210006A8920F4A05010430843A081A08AA9898C
:1042200020F440700843A0826846FEF7A9FFA4F17D
:104230008040B0F588301BBFA4F18040B0F58A30D3
:1042400003980298A18911F4004F00EBC00101EB23
:104250000010296814BF49008900B0FBF1F0114A31
:104260006FF0180CA2FB0031490909010B0903FB8F
:104270000CF300EB8300A38913F4004F4FF03203DB
:1042800014BF03EBC00003EB0010A2FB00204FEAB9
:10429000501014BF00F0070000F00F000843208109
:1042A00005B030BD1F85EB518088C0F30800704712
:1042B000C1F3080181807047FEE700000FB4054B91
:1042C00010B503A9044A029801F088FA10BC5DF801
:1042D00014FB00000D6000083C01002003B40198AD
:1042E0004100009850EAC12018BF04204A0D18BFB1
:1042F00040F0010040F2FF72B2EB515F08BF40F0A6
:104300000200012808BF052002B07047000000002D
:1043100070B59F482DED020B2DED068B079D25F006
:104320000044A0421DDC9B48844202DC0FD1069869
:1043300068B19DED060B53EC102B51EC100BFBF705
:104340004EFFBDEC068B02B041EC100B70BD002D92
:10435000CCBF9FED910B9FED920BBDEC068B02B095
:1043600070BD9148A04215DD9048A042D8BF4FF0E3
:10437000FF3440DD9DED060B51EC100BFFF7AEFF57
:10438000042808BF01F048F99DED060BBDEC068B33
:1043900002B070BD9DED060B51EC100B01F00EFE4E
:1043A00041EC100B82488DED060B9FED838BA042F4
:1043B0003CDD8348A0421FDD00249FED839B51EC30
:1043C000100B53EC192BFBF70AFF9DED060B41EC8C
:1043D0001A0B53EC192B51EC100BFBF7A7FF53EC06
:1043E000182BFBF79DFF53EC1A2BFCF711F841EC4F
:1043F000100B8DED060B49E0012453EC182B51EC0A
:10440000100BFBF7ECFE9DED060B41EC190B53EC8A
:10441000182B51EC100BFBF783FF53EC192BFBF718
:10442000F7FF41EC100B8DED060B2FE06848A04222
:104430001FDD02249FED689B51EC100B53EC192BF0
:10444000FBF774FF53EC182BFBF7C9FE9DED060B31
:1044500041EC180B53EC192B51EC100BFBF760FFE0
:1044600053EC182BFBF7D4FF41EC100B8DED060B32
:104470000CE053EC102B03249FED590B51EC100B67
:10448000FBF7C6FF41EC100B8DED060B9DED060B07
:1044900053EC102B51EC100BFBF748FF41EC180BC1
:1044A00053EC182BFBF742FF41EC190B4E48062149
:1044B000B0EE490AF0EE690A784401F02EF853ECA8
:1044C000182B51EC100BFBF731FF41EC180B474850
:1044D000B0EE490AF0EE690A0521784401F01DF8B2
:1044E00053EC192B51EC100BFBF720FF41EC100B98
:1044F00051EC180B53EC102B002C0EDAFBF76FFE6F
:104500009DED061B53EC112BFBF710FF9DED061BD9
:1045100053EC112BFBF707FF35E0FBF760FE9DED39
:10452000061B53EC112BFBF701FF41EC100B30483D
:10453000784400EBC40090ED001B51EC100B53ECE1
:10454000112BFBF7EDFE9DED061B53EC112BFBF73A
:10455000E7FE41EC110B2748784400EBC40090EDD6
:10456000000B51EC110B53EC102BFBF7DCFE41EC74
:10457000100B002DA2BFBDEC068B02B070BD51EC3C
:10458000100B81F0004141EC100BFFE60000000031
:10459000000010440000F07F182D4454FB21F93F27
:1045A000182D4454FB21F9BF0000DC3F0000203EE1
:1045B0000000F33F00000000000000000000F03F9A
:1045C0000000E63F00000000000000000000004086
:1045D0000080034000000000000000000000F83FE1
:1045E000000000000000F0BF44210000FA2000009D
:1045F000842000003C20000070B52DED040B2DED53
:10460000028B82B0DDE90534DDF81CC062422CF07B
:104610000041224341EAD2755F4A049E23F00040E4
:10462000954205D87542354340EAD575954210D973
:104630009DED060B53EC102B9DED040B51EC100B74
:10464000FBF7CDFD41EC100B02B0BDEC028B04B0CA
:1046500070BDACF14055A5F17F6525430BD0022517
:1046600005EAAC7545EAD37506439FED4D8B9FED8A
:104670004E2B07D010E09DED040B51EC100B01F018
:1046800050FC39E0002D14BF012D9DED040BDBD053
:10469000022D34D0032D37D00C439FED451B9FEDE9
:1046A000460B0AD0914218D1904209D121F08041A5
:1046B00020F08040079105900FE0002BC4DA10E055
:1046C0003F4C7C44002D08BF94ED000BBCD0012D65
:1046D0000CD0022D13D0032D16D0904219D1002BEF
:1046E000B2DAB0EE410AF0EE610AADE794ED000BEC
:1046F00051EC100B81F0004141EC100BA4E7B0EE3F
:10470000480AF0EE680A9FE7B0EE420AF0EE620A4D
:104710009AE7401A00153C2817DCBCF1000FBCBF1B
:1047200010F13C0F9FED280B0FDB9DED060B53ECBA
:10473000102B9DED040B51EC100BFBF769FE01F003
:104740003DFC01F0EEFB41EC100B002D8DED000B5C
:104750003FF47AAF012D10D0022D9FED1D0B53ECCD
:10476000102B9DED000B51EC100B0ED0FBF7D8FD7C
:1047700053EC182BFBF7D4FDBEE710EE900A80F047
:10478000004001909DED000B5EE7FBF7C9FD53EC87
:10479000182BFBF7C8FDAFE70000F07F000000001A
:1047A000182D4454FB210940182D4454FB2109C005
:1047B000182D4454FB21F9BF182D4454FB21F93F17
:1047C000F21F0000000000000000000000000000D8
:1047D000075C143326A6A13C30B583B09FED0A0BCD
:1047E00004468DED000B00F027FF05460022214610
:1047F0006846FBF794FF284600F034FF9DED000B60
:1048000003B030BD00000000000000000000000008
:104810002DE9F04D2DED040B2DED0E8B94B0DDE95F
:104820002350259CDDF888A025F0004624F00048A0
:10483000BAF1000F14BF0121002101EB4502FE492E
:1048400053184A1093422AD3002814BF012300238F
:1048500003EB44030B44F9498B4220D358EA00018F
:104860009FEDF78B6FD0DFF8E0B35D4503D1BAF170
:10487000000F05D181E0BAF1000F08BF002100D080
:10488000012101EB450111F5001F08D8002814BFD4
:104890000121002101EB440111F5001F0AD99DED12
:1048A000240B53EC102B9DED220B51EC100BFBF75E
:1048B00096FC40E00027002DBCBFE449884521DA82
:1048C000E3498845A8BF02271CDAC3451ADCE14941
:1048D00001EB2851142908DDC1F1340220FA02F15C
:1048E00001FA02F282420DD108E058B9C1F1140276
:1048F00028FA02F101FA02F2424503D101F0010166
:10490000C1F1020756EA0A019FEDD3AB1CD1002C7E
:104910001ADA002D18BF022F01D0012F07D0022074
:1049200000F0A0FE53EC1A2B51EC180B05E102200D
:1049300000F098FE7DE041EC100B14B0BDEC0E8B46
:1049400004B0BDE8F08D18E09FEDC5BB9FEDC69BA0
:10495000002877D1BD48804522D105F1804010F56F
:10496000801008BFBAF1000F07D0B3450ADC002C55
:10497000A8BF9DED240BE0DA0DE0B0EE480AF0EEA2
:10498000680ADAE7002C06DA9DED240B51EC100BD7
:1049900081F00041CFE7B648784490ED000BCCE7BA
:1049A000D84553D1002C4EDA2EB1864240D1BAF10F
:1049B000000F48D12CE0BAF1000F19D0022000F00E
:1049C00051FE53EC192B51EC190BFBF7AFFC41ECEA
:1049D000100B8DED020B9DED220B8DED000B10EEFB
:1049E000900A039961F31E0003909DED020BA4E76A
:1049F0008DED02BB9DED220B1BEE901A10EE900A7E
:104A00008DED000B61F31E0003909DED020B94E70A
:104A10008DED02AB9DED220B1AEE901A10EE900A6E
:104A20008DED000B61F31E0003909DED020B84E7FA
:104A300009DA9DED220B51EC180B53EC102BFBF710
:104A4000E7FC78E71DE09DED220B76E7864218DA59
:104A5000B4F1804F0DD0A4F10050B0F1FF5010D14F
:104A6000002D0EDB9DED220B51EC100B01F05AFDD9
:104A700061E79DED220B53EC102B51EC100B00F075
:104A8000E1BC9DED220B51EC100B01F097FA41ECCB
:104A9000100BBAF1000F8DED120B34D19FED760B98
:104AA000DEB1A6F1E040B0F17F602CD1002D01DD38
:104AB000002C0DDA002D01DD002C1FDB002D16DA95
:104AC000002C14DB012F08BF9FED6D0B3FF435AFB9
:104AD000B0EE4B0AF0EE6B0A2FE7022F18BF002D45
:104AE0000CD0012F0AD1002DFFF627AF06E0002DD4
:104AF000B8BF002C07DA012F3FF41FAFB0EE4A0A0F
:104B0000F0EE6A0A19E7012000EBE57004903843E3
:104B10000CD05D48002580457DDD5C495C488845BA
:104B200013DDB0420CDB002C18DB30E0012000F07C
:104B300099FD53EC1A2B51EC1A0BFBF769FCFAE6C2
:104B4000B34502DC002C09DC21E0864202DA002CAD
:104B50001DDA03E05E452DDD002C18DD022000F09B
:104B600081FD53EC192B51EC190BFBF7DFFB41ECEA
:104B7000100B1BEE900A10EE901A8DED020B8DEDCE
:104B800000BB61F31E0003909DED020BD5E60220F1
:104B900000F068FD00F040FD10EE901A18EE900A4B
:104BA0008DED020B8DED008B61F31E0003909DEDEA
:104BB000020BC2E69DED220B53EC182B51EC100BAF
:104BC000FBF7AEFB41EC100B8DED0C0B9FED320BA8
:104BD00053EC102B9DED0C0B51EC100BFBF7A6FBCF
:104BE0009FED2F1B53EC112BFBF79DFB9DED0C1B39
:104BF00053EC112BFBF79AFB9FED2B1B53EC112B66
:104C0000FBF791FB9DED0C0B41EC1A0B53EC102BB9
:104C100051EC100B00E08AE0FBF788FB53EC1A2BF9
:104C2000FBF784FB9FED220B41EC1B0B53EC102B8D
:104C30009DED0C0B40E00000FFFF1F00FFFF0F0089
:104C4000000000000000F03F0000F03F0000F07F97
:104C50000000404301FCFFFF0000000000000000D6
:104C6000000000000000F07F000000000000007065
:104C70001C1D00000000000000000000000000807B
:104C8000000000000000F0FF0000E0410000F043E1
:104C9000FFFFEF3F00000000000000000000D03FD9
:104CA000555555555555D53F000000000000E03FD3
:104CB000000000604715F73F51EC100BFBF736FB87
:104CC00041EC1A0B9FEDFE0B51EC1B0B53EC102B20
:104CD000FBF72CFB41EC1B0B9FEDFB0B53EC102B5C
:104CE0009DED0C0B51EC100BFBF720FB53EC1B2B39
:104CF000FBF716FB41EC1B0B51EC1A0B53EC1B2B77
:104D0000FBF76DFA41EC100B53EC1A2B8DED080BF1
:104D100008959DED080B51EC100BFBF701FB53ECD4
:104D20001B2BFBF700FB41EC100B00F0AFB9002090
:104D3000B6F5801F11DA9FEDE60B53EC102B9DEDBD
:104D4000120B51EC100BFBF7F1FA41EC100B6FF06A
:104D5000340010EE906A8DED120BDF4900EB265007
:104D6000A0F2FF38C6F3130040F07F6646F04056CD
:104D70008842D8BF002409DDD8498142C8BF012438
:104D800004DC002408F10108A6F58016D448784414
:104D900000EBC40A13969AED000B53EC102B9DED1B
:104DA000120B51EC100BFBF7BBFA9AED000B41EC28
:104DB0001B0B53EC102B9DED120B51EC100BFBF762
:104DC0000EFA41EC100B51EC180B53EC102BFBF7C7
:104DD0001FFB41EC1C0B51EC1B0B53EC1C2BFBF78A
:104DE000A5FA41EC1A0BBF488DED0AAB78440A9541
:104DF00090ED000B4FF0005040EA660000EB84405D
:104E00008DED100B00F5002011909AED000B53EC86
:104E1000102B9DED100B51EC100BFBF781FA9DED63
:104E2000121B53EC112BFBF77EFA41EC100B53ECE9
:104E3000102B9DED0A0B51EC100BFBF777FA9DED53
:104E4000100B41EC1D0B53EC102B9DED0A0B51EC9C
:104E5000100BFBF76BFA53EC1B2BFBF764FA53ECCC
:104E60001D2BFBF75DFA53EC1C2BFBF75FFA41ECB3
:104E70001C0B53EC1A2B51EC1A0BFBF757FA41ECB5
:104E80001B0B99480621B0EE4B0AF0EE6B0A7844F2
:104E900000F043FBB0EE40DAF0EE60DA53EC1B2B8F
:104EA00051EC1B0BFBF742FA53EC1D2BFBF73EFAC0
:104EB0009DED0A0B41EC1B0B53EC1A2B51EC100B24
:104EC000FBF78DF953EC1C2BFBF730FA53EC1B2B43
:104ED000FBF785F99DED0A0B41EC1D0B53EC102BF4
:104EE00051EC100BFBF722FA41EC1B0B9FED80EB12
:104EF00053EC1E2BFBF773F953EC1D2BFBF76FF9EB
:104F000041EC100B53EC1E2B8DED100B10959DED0D
:104F1000100B51EC100BFBF703FA53EC1B2BFBF7B8
:104F2000FFF953EC1D2BFBF7FEF99DED100B41EC47
:104F30001D0B53EC102B9DED0A0B51EC100BFBF7E6
:104F4000F5F941EC1B0B53EC1A2B51EC1D0BFBF745
:104F5000EDF99DED100B41EC1A0B53EC102B51ECBD
:104F60001C0BFBF7E3F953EC1A2BFBF738F941EC78
:104F70001A0B51EC1B0B53EC1A2BFBF730F941ECDD
:104F8000100B53EC1B2B8DED0A0B0A959DED0A0BB4
:104F900051EC100BFBF7C4F953EC1A2BFBF7C3F9D8
:104FA00041EC1A0B9FED540B53EC102B9DED0A0BAB
:104FB00051EC100BFBF7BAF941EC1B0B9FED500BBA
:104FC00051EC1A0B53EC102BFBF7B0F941EC1A0B18
:104FD0009FED4D0B53EC102B9DED0A0B51EC100B7C
:104FE000FBF7A4F953EC1A2BFBF7F9F841EC100B83
:104FF0004748784400EBC40090ED001B51EC100BC7
:1050000053EC112BFBF7EBF841EC1A0B4046FBF786
:105010006EFA41EC100B53EC1A2B8DED0C0B51EC8E
:105020001B0BFBF7DCF841EC100B3A48784400EB23
:10503000C40451EC100B94ED001B53EC112BFBF747
:10504000CEF89DED0C1B53EC112BFBF7C8F841EC8F
:10505000100B8DED080B08959DED0C0B53EC102BF0
:105060009DED080B51EC100BFBF75AF994ED000B7A
:1050700053EC102BFBF754F953EC1B2BFBF750F9B7
:1050800053EC1A2BFBF74FF941EC100B0498791EE7
:10509000B0EE48BAF0EE68BA084308BF9FED1E8B29
:1050A0009DED241B53EC102B8DED001B00959DED09
:1050B000240B51EC100BFBF739F941EC1A0B2FE0E4
:1050C000FE822B654715F73F44DF5DF80BAE543E7B
:1050D00000000000000040438E9803007AB60B00E9
:1050E0009E180000C8180000CE1700000000000045
:1050F0000000000000000840000000E009C7EE3F8B
:10510000FD033ADC09C7EE3FF5015B14E02F3EBE1C
:105110005A16000010160000000000000000F0BF4A
:105120009DED000B53EC102B9DED240B51EC100B5F
:10513000FBF7F6F89DED081B53EC112BFBF7F6F887
:1051400053EC1A2BFBF74BF89DED080B41EC1A0BB7
:1051500053EC102B9DED000B51EC100BFBF7E6F818
:1051600041EC100B51EC1A0B8DED0A0B53EC102B8C
:10517000FBF735F841EC100BB54910EE904A10EEF4
:10518000100A8DED020B8C4235DB611A084318D1F1
:105190009DED0A0B53EC102B9DED020B51EC100B07
:1051A000FBF7BEF841EC1C0B9FEDAB0B51EC1A0B5F
:1051B00053EC102BFBF713F853EC1C2BFBF7F8FB0D
:1051C00033D2022000F04EFA53EC192B51EC190B9C
:1051D000FBF7ACF841EC100B18EE900A10EE901AA9
:1051E0008DED020B8DED008B61F31E0003909DEDA4
:1051F000020BFFF7A2BB9A4A24F00041914214D35C
:105200009849214408437FF4C2AC9DED0A0B53EC4E
:10521000102B9DED020B51EC100BFBF781F853ECBA
:105220001A2BFBF7C5FB7FF6B2AC24F000408E4989
:105230008E4A002601EB20519042D8BF9DED0A0B0B
:105240002DDD481C4FF4801121FA00F02044C0F3FA
:105250000A51874AA1F2FF317A4492ED000B854A48
:105260008DED0C0BCA4020EA0202C0F3130040F49B
:105270008010C1F1140120FA01F60D92002CB8BF84
:1052800076429DED0C0B53EC102B9DED0A0B51EC6F
:10529000100BFBF745F841EC100B8DED0A0B53ECAE
:1052A000102B51EC1A0BFAF79AFF41EC100B8DED15
:1052B0000C0B9FED710B0C9553EC102B9DED0C0B13
:1052C00051EC100BFBF732F841EC190B9FED6C0B16
:1052D00053EC102B9DED0C0B51EC100BFBF726F84B
:1052E0009DED0A0B41EC1C0B53EC102B9DED0C0BB0
:1052F00051EC100BFBF714F853EC1A2BFBF713F8D7
:105300009FED611B53EC112BFBF710F853EC1C2B9A
:10531000FAF765FF41EC1A0B51EC190B53EC1A2B01
:10532000FAF75DFF41EC100B53EC192B8DED020BDE
:10533000FAF7F6FF53EC1A2BFAF7F5FF9DED020B87
:1053400041EC190B53EC102B51EC100BFAF7EEFF5C
:1053500041EC100B4E488DED0C0B0521784400F00C
:10536000DCF89DED0C1B51EC100B53EC112BFAF7F4
:10537000DDFF9DED021B53EC112BFAF7D4FF41EC3E
:10538000100B53EC192B8DED080B9DED020B51EC1E
:10539000100BFAF7CBFF53EC192BFAF720FF9FED18
:1053A0003E0B41EC1A0B53EC102B9DED080B51EC0E
:1053B000100BFAF7B5FF9DED080B41EC190B53EC00
:1053C000102B9DED020B51EC100BFAF7AFFF53ECD5
:1053D000192BFBF71DF853EC1A2BFAF7A1FF9DEDE3
:1053E000021B53EC112BFAF79BFF53EC1B2BFAF724
:1053F0009AFF41EC100B10EE900A8DED020B00EBC2
:10540000065001150029C4BF03909DED020B15DC69
:10541000324651EC100BFBF74AFAFEF75FFF042807
:1054200008BF00F0F9F832469DED020B51EC100B6D
:10543000FBF73DFA41EC100B8DED020B53EC102BFA
:1054400051EC180BFAF772FFFFF775BA0000000075
:105450000000904000000000FE822B654715973C3D
:1054600000CC904000346F3F01FCFFFF0000E03FA4
:105470005C140000FFFF0F0000000000432EE63F19
:10548000396CA80C615C20BEEF39FAFE422EE63F73
:105490003013000000000000000000000000004089
:1054A00000B52DED048BB0EE408AF0EE608A83B03B
:1054B00051EC180BFBF712FA41EC190B19EE100A1C
:1054C00019EE901A8DED009B002818BF01200843AB
:1054D00020F00040C0F17F6000F1E040C00F14D028
:1054E00018EE101A18EE900A8DED008B002918BFE7
:1054F0000121084320F00040C0F17F6000F1E0404E
:10550000C00F04BF012000F0ADF8B0EE490A03B0AF
:10551000F0EE690ABDEC048B00BD70B504462DEDBC
:10552000028B4D1E00EBC500B0EE408AF0EE608AA3
:1055300090ED000B35F0060017D053EC182B51EC12
:10554000100BFAF7F3FE41EC100B6D1E04EBC500D7
:1055500090ED001B51EC100B53EC112BFAF73FFEB2
:1055600041EC100B35F00600E7D1022D36D0042DAA
:105570001CD0062D1CBFBDEC028B70BD53EC182B4C
:1055800051EC100BFAF7D2FE94ED0A1B53EC112BE1
:10559000FAF725FE53EC182BFAF7C8FE94ED080B2A
:1055A00053EC102BFAF71BFE41EC100B53EC182BAD
:1055B00051EC100BFAF7BAFE94ED060B53EC102BDE
:1055C000FAF70DFE53EC182BFAF7B0FE94ED041B1E
:1055D00053EC112BFAF703FE41EC100B53EC182B94
:1055E00051EC100BFAF7A2FE94ED020B53EC102BCA
:1055F000FAF7F5FD53EC182BFAF798FE94ED000B33
:1056000053EC102BFAF7EBFDBDEC028B41EC100BC9
:1056100070BD0000000000009FED050B10B553ECBD
:10562000102B51EC100BFAF781FE41EC100B10BD62
:1056300000000000000000100148006870470000F2
:105640004001002002E008C8121F08C1002AFAD158
:1056500070477047002001E001C1121F002AFBD1F2
:1056600070470000014908607047000040010020B9
:105670002DE9FF5FDDE90220010DDDF838B00243BE
:1056800010D10F9801244CA2012808D000210098C5
:105690000F9BC0E90021C0E90243BDE8FF9F6FEA0C
:1056A0000B01F4E7A1F2FF3144F6105041430D1411
:1056B0000F9801280ED0A5EB0B00401C4FF0000402
:1056C0003E4EDFF8FC90B0F1000AA04605DACAF1C0
:1056D000000717E0CBF10000F0E7074612E0F807FB
:1056E00007D02246334640464946FAF71FFE804619
:1056F00089462246334610461946FAF717FE0446F5
:105700000E467F10002FEAD1DDE90201BAF1000F49
:1057100042464B4602DAFAF709FE01E0FAF778FE54
:1057200004460E460022274BFBF742F903D84FF000
:10573000FF30014607E00022234B20463146FAF7AE
:105740004EFDFBF71CF9102409E0002C0ADB0A22AD
:105750000023FAF767FF019B30321A55641E50EAA6
:105760000102F2D1641C019AC4F1110314440F9A8E
:10577000012A09D00122084301D15B450FDD4FF01A
:10578000000205F101050DE0084303D1A3EB0B0571
:105790006D1E09E000204FF0110B0F9088E701DA31
:1057A00000226D1E002A83D000980F99C0E90231B3
:1057B000C0E9004571E7000030000000000024400F
:1057C0000000F03F0000F0430000E03F30380A28BE
:1057D00001D2012070470020704700002DE9FF4FE3
:1057E00095B09B4689460646002512E2252878D1C9
:1057F0000024761CF94A2746012105943378203B82
:1058000001FA03F0104202D00443761CF6E7307828
:105810002A2811D06FF02F033078A0F13002092A26
:1058200016D8059A44F0020402EB820203EB42020E
:105830001044761C0590EFE759F8042B0592002AD6
:1058400003DA504244F40054059044F00204761CFC
:1058500030782E2816D116F8010F44F004042A28B7
:105860000DD06FF02F023078A0F13003092B09D84A
:1058700007EB870302EB4303C718761CF3E759F8DD
:10588000047B761C30786C280FD006DC4C2817D0AF
:1058900068280DD06A2814D104E0742810D07A2822
:1058A0000FD10DE044F400140AE044F4801401E048
:1058B00044F440147278824202D1761C04F58014BC
:1058C000761C307866280BD013DC582877D009DC9A
:1058D000002875D04528F6D04628F4D047281AD19C
:1058E0009FE118E0632835D0642879D0652812D16B
:1058F00097E1702873D008DC6728F1D069286FD051
:105900006E280DD06F2806D1B5E073282CD07528ED
:1059100075D0782874D05A46179990476D1C76E157
:10592000C4F30250022809D003280DD0D9F8001082
:1059300004280DD00D6009F1040968E1D9F80010C0
:10594000EA17C1E90052F6E7D9F800100D80F2E736
:105950000D70F0E719F8041B8DF8001000208DF889
:105960000100EA46012003E059F804AB4FF0FF3094
:1059700061074FF0000102D40DE008F101018846F3
:10598000B9420FDA8045F8DB1AF808100029F4D183
:1059900008E008F1010188468142FADB1AF8081094
:1059A0000029F6D105985B46A0EB0807214638464A
:1059B000179A00F09EFA284400EB080507E04DE036
:1059C0002BE10DE01AF8010B5A4617999047B8F1F0
:1059D0000108F7D25B4621463846179A14E142E0A7
:1059E0000A220092C4F302524FF0000A022A08D0A1
:1059F00059F804CB032A4FEAEC710AD00DE029E0F4
:105A00002AE009F1070121F00702F2E802C19146FC
:105A100009E00FFA8CFC4FEAEC71042A03D14FFA2B
:105A20008CFC4FEAEC71002907DA0A460021DCF110
:105A3000000C61EB02012D2202E0220504D52B228D
:105A40008DF80420012203E0E20701D02022F7E7CD
:105A5000904653E00A2102E010220DE010214FF0A1
:105A6000000A00910BE010224FF0000A44F00404F9
:105A70000827009203E008224FF0000A0092C4F3C6
:105A80000252022A05D059F804CB0021032A08D07B
:105A900009E009F1070121F00702F2E802C191468D
:105AA00005E01FFA8CFC042A01D10CF0FF0C4FF02A
:105AB0000008220722D5702827D0009B83F010030E
:105AC00053EA0A0309D15CEA010206D030228DF8BC
:105AD00004208DF8050002229046009B83F0080305
